{
  "contractName": "EcoReward",
  "abi": [
    {
      "inputs": [],
      "stateMutability": "nonpayable",
      "type": "constructor"
    },
    {
      "anonymous": false,
      "inputs": [
        {
          "indexed": true,
          "internalType": "address",
          "name": "user",
          "type": "address"
        },
        {
          "indexed": false,
          "internalType": "uint256",
          "name": "amount",
          "type": "uint256"
        }
      ],
      "name": "RewardGiven",
      "type": "event"
    },
    {
      "inputs": [
        {
          "internalType": "address",
          "name": "",
          "type": "address"
        }
      ],
      "name": "balances",
      "outputs": [
        {
          "internalType": "uint256",
          "name": "",
          "type": "uint256"
        }
      ],
      "stateMutability": "view",
      "type": "function",
      "constant": true
    },
    {
      "inputs": [],
      "name": "owner",
      "outputs": [
        {
          "internalType": "address",
          "name": "",
          "type": "address"
        }
      ],
      "stateMutability": "view",
      "type": "function",
      "constant": true
    },
    {
      "inputs": [
        {
          "internalType": "address",
          "name": "user",
          "type": "address"
        },
        {
          "internalType": "uint256",
          "name": "amount",
          "type": "uint256"
        }
      ],
      "name": "rewardUser",
      "outputs": [],
      "stateMutability": "nonpayable",
      "type": "function"
    },
    {
      "inputs": [
        {
          "internalType": "address",
          "name": "user",
          "type": "address"
        }
      ],
      "name": "getBalance",
      "outputs": [
        {
          "internalType": "uint256",
          "name": "",
          "type": "uint256"
        }
      ],
      "stateMutability": "view",
      "type": "function",
      "constant": true
    }
  ],
  "bytecode": "0x608060405234801561000f575f80fd5b505f80546001600160a01b031916331790556102708061002e5f395ff3fe608060405234801561000f575f80fd5b506004361061004a575f3560e01c806327e235e31461004e5780638da5cb5b14610080578063e4e103dc146100aa578063f8b2cb4f146100bf575b5f80fd5b61006d61005c3660046101cd565b60016020525f908152604090205481565b6040519081526020015b60405180910390f35b5f54610092906001600160a01b031681565b6040516001600160a01b039091168152602001610077565b6100bd6100b83660046101ed565b6100e7565b005b61006d6100cd3660046101cd565b6001600160a01b03165f9081526001602052604090205490565b5f546001600160a01b031633146101445760405162461bcd60e51b815260206004820152601b60248201527f4f6e6c79206f776e65722063616e206578656375746520746869730000000000604482015260640160405180910390fd5b6001600160a01b0382165f908152600160205260408120805483929061016b908490610215565b90915550506040518181526001600160a01b038316907f3ad0c8d1bbd63d54c5f14180eae95cab7c2420b2dbb90603a6e5d206668f52ec9060200160405180910390a25050565b80356001600160a01b03811681146101c8575f80fd5b919050565b5f602082840312156101dd575f80fd5b6101e6826101b2565b9392505050565b5f80604083850312156101fe575f80fd5b610207836101b2565b946020939093013593505050565b8082018082111561023457634e487b7160e01b5f52601160045260245ffd5b9291505056fea264697066735822122033a8ce223d806501a215424a9cb7452164376c76eadb00115a710ac48b67050564736f6c63430008150033",
  "immutableReferences": {},
  "source": "// SPDX-License-Identifier: MIT\r\npragma solidity ^0.8.21;\r\n\r\ncontract EcoReward {\r\n    // Owner of the contract\r\n    address public owner;\r\n\r\n    // Mapping to store user balances\r\n    mapping(address => uint256) public balances;\r\n\r\n    // Event to log rewards\r\n    event RewardGiven(address indexed user, uint256 amount);\r\n\r\n    // Constructor to set the owner\r\n    constructor() {\r\n        owner = msg.sender;\r\n    }\r\n\r\n    // Modifier to restrict access\r\n    modifier onlyOwner() {\r\n        require(msg.sender == owner, \"Only owner can execute this\");\r\n        _;\r\n    }\r\n\r\n    // Function to reward tokens\r\n    function rewardUser(address user, uint256 amount) public onlyOwner {\r\n        balances[user] += amount;\r\n        emit RewardGiven(user, amount);\r\n    }\r\n\r\n    // Function to get user balance\r\n    function getBalance(address user) public view returns (uint256) {\r\n        return balances[user];\r\n    }\r\n}\r\n",
  "sourcePath": "C:\\Users\\mkedw\\OneDrive\\Desktop\\EcoLoop Blockchain Reward System\\contracts\\EcoReward.sol",
  "compiler": {
    "name": "solc",
    "version": "0.8.21+commit.d9974bed.Emscripten.clang"
  },
  "schemaVersion": "3.4.16",
  "updatedAt": "2024-11-14T10:14:27.670Z",
  "networkType": "ethereum",
  "devdoc": {
    "kind": "dev",
    "methods": {},
    "version": 1
  },
  "userdoc": {
    "kind": "user",
    "methods": {},
    "version": 1
  }
}